:020000040800F2
:100000000080002039CB000829BC00082BBC000868
:100010002DBC00082FBC000831BC00080000000007
:1000200000000000000000000000000033BC0008D9
:1000300035BC00080000000037BC000839BC0008CF
:1000400089CB000889CB000889CB000889CB000840
:1000500089CB000889CB000841BC00084BBC0008D4
:1000600089CB000889CB000889CB000855BC000863
:1000700065BC000875BC000889CB000889CB000866
:1000800089CB00080000000089CB000885BC00086F
:1000900095BC000889CB000889CB000889CB0008F3
:1000A00089CB0008A5BC000889CB0008B5BC0008B6
:1000B000C5BC000889CB0008D5BC0008E5BC000819
:1000C000F5BC000889CB000889CB000889CB000863
:1000D00089CB000805BD000815BD000825BD000836
:1000E00089CB000889CB000889CB000889CB0008A0
:1000F00089CB000889CB000889CB000800000000EC
:100100000000000089CB00080000000089CB000837
:1001100089CB00080000000089CB000889CB0008CB
:1001200089CB000889CB000889CB000889CB00085F
:1001300089CB0008000000000000000089CB000807
:1001400089CB000889CB00080000000000000000F7
:10015000000000000000000000000000000000009F
:1001600000000000000000000000000089CB000833
:1001700089CB000800000000000000000000000023
:100180000000000089CB0008000000000000000013
:10019000000000000000000000000000000000005F
:1001A000000000000000000089CB000889CB000897
:1001B00089CB000889CB000889CB0008000000002B
:1001C0000000000089CB00080000000000000000D3
:0801D00089CB000889CB00086F
:1001E00010B5054C237833B9044B13B10448AFF371
:1001F00000800123237010BDD805002000000000FE
:10020000F0DE000808B5034B1BB103490348AFF308
:10021000008008BD00000000DC050020F0DE0008C2
:1002200081F0004102E000BF83F0004330B54FEAA7
:1002300041044FEA430594EA050F08BF90EA020F14
:100240001FBF54EA000C55EA020C7FEA645C7FEAA7
:10025000655C00F0E2804FEA5454D4EB5555B8BFCA
:100260006D420CDD2C4480EA020281EA030382EA3B
:10027000000083EA010180EA020281EA0303362DCD
:1002800088BF30BD11F0004F4FEA01314FF4801CA0
:100290004CEA113102D0404261EB410113F0004FB2
:1002A0004FEA03334CEA133302D0524263EB430369
:1002B00094EA050F00F0A780A4F10104D5F1200E07
:1002C0000DDB02FA0EFC22FA05F2801841F1000162
:1002D00003FA0EF2801843FA05F359410EE0A5F136
:1002E00020050EF1200E012A03FA0EFC28BF4CF067
:1002F000020C43FA05F3C01851EBE37101F000451D
:1003000007D54FF0000EDCF1000C7EEB00006EEB29
:100310000101B1F5801F1BD3B1F5001F0CD34908B3
:100320005FEA30004FEA3C0C04F101044FEA44520A
:1003300012F5800F80F09A80BCF1004F08BF5FEA91
:10034000500C50F1000041EB045141EA050130BD71
:100350005FEA4C0C404141EB010111F4801FA4F114
:100360000104E9D191F0000F04BF01460020B1FA69
:1003700081F308BF2033A3F10B03B3F120020CDAA1
:100380000C3208DD02F1140CC2F10C0201FA0CF07F
:1003900021FA02F10CE002F11402D8BFC2F1200CE4
:1003A00001FA02F120FA0CFCDCBF41EA0C0190409A
:1003B000E41AA2BF01EB0451294330BD6FEA0404E3
:1003C0001F3C1CDA0C340EDC04F11404C4F12002CE
:1003D00020FA04F001FA02F340EA030021FA04F3E0
:1003E00045EA030130BDC4F10C04C4F1200220FA37
:1003F00002F001FA04F340EA0300294630BD21FA75
:1004000004F0294630BD94F0000F83F4801306BF3A
:1004100081F480110134013D4EE77FEA645C18BF2E
:100420007FEA655C29D094EA050F08BF90EA020FC5
:1004300005D054EA000C04BF1946104630BD91EABD
:10044000030F1EBF0021002030BD5FEA545C05D1C0
:100450004000494128BF41F0004130BD14F58004FF
:100460003CBF01F5801130BD01F0004545F0FE4173
:1004700041F470014FF0000030BD7FEA645C1ABFA8
:10048000194610467FEA655C1CBF0B46024650EADF
:10049000013406BF52EA033591EA030F41F400210B
:1004A00030BD00BF90F0000F04BF0021704730B591
:1004B0004FF4806404F132044FF000054FF0000166
:1004C00050E700BF90F0000F04BF0021704730B527
:1004D0004FF4806404F1320410F0004548BF4042FC
:1004E0004FF000013EE700BF42004FEAE2014FEA51
:1004F00031014FEA02701FBF12F07F4393F07F4F2C
:1005000081F06051704732F07F4208BF704793F02E
:100510007F4F04BF41F40021704730B54FF4607441
:1005200001F0004521F000411CE700BF50EA010244
:1005300008BF704730B54FF000050AE050EA0102ED
:1005400008BF704730B511F0004502D5404261EB5D
:1005500041014FF4806404F132045FEA915C3FF49E
:10056000D8AE4FF003025FEADC0C18BF03325FEA3B
:10057000DC0C18BF033202EBDC02C2F1200300FAEC
:1005800003FC20FA02F001FA03FE40EA0E0021FA11
:1005900002F11444BDE600BF70B54FF0FF0C4CF4FF
:1005A000E06C1CEA11541DBF1CEA135594EA0C0FB1
:1005B00095EA0C0F00F0DEF82C4481EA030621EAEC
:1005C0004C5123EA4C5350EA013518BF52EA033527
:1005D00041F4801143F4801338D0A0FB02CE4FF0D9
:1005E0000005E1FB02E506F00042E0FB03E54FF009
:1005F0000006E1FB03569CF0000F18BF4EF0010E01
:10060000A4F1FF04B6F5007F64F5407404D25FEAFC
:100610004E0E6D4146EB060642EAC62141EA5551AF
:100620004FEAC52040EA5E504FEACE2EB4F1FD0CF1
:1006300088BFBCF5E06F1ED8BEF1004F08BF5FEA6F
:10064000500E50F1000041EB045170BD06F0004621
:1006500046EA010140EA020081EA0301B4EB5C04CE
:10066000C2BFD4EB0C0541EA045170BD41F48011C6
:100670004FF0000E013C00F3AB8014F1360FDEBFEB
:10068000002001F0004170BDC4F10004203C35DAC7
:100690000C341BDC04F11404C4F1200500FA05F34A
:1006A00020FA04F001FA05F240EA020001F00042EB
:1006B00021F0004110EBD37021FA04F642EB060161
:1006C0005EEA430E08BF20EAD37070BDC4F10C048B
:1006D000C4F1200500FA04F320FA05F001FA04F24F
:1006E00040EA020001F0004110EBD37041F100013B
:1006F0005EEA430E08BF20EAD37070BDC4F1200546
:1007000000FA05F24EEA020E20FA04F301FA05F2AD
:1007100043EA020321FA04F001F0004121FA04F255
:1007200020EA020000EBD3705EEA430E08BF20EA25
:10073000D37070BD94F0000F0FD101F0004640005F
:1007400041EB010111F4801F08BF013CF7D041EAE1
:10075000060195F0000F18BF704703F000465200E5
:1007600043EB030313F4801F08BF013DF7D043EAB6
:100770000603704794EA0C0F0CEA135518BF95EA6C
:100780000C0F0CD050EA410618BF52EA4306D1D1F3
:1007900081EA030101F000414FF0000070BD50EA12
:1007A000410606BF1046194652EA430619D094EA9C
:1007B0000C0F02D150EA013613D195EA0C0F05D186
:1007C00052EA03361CBF104619460AD181EA0301DA
:1007D00001F0004141F0FE4141F470014FF0000092
:1007E00070BD41F0FE4141F4780170BD70B54FF02D
:1007F000FF0C4CF4E06C1CEA11541DBF1CEA1355AD
:1008000094EA0C0F95EA0C0F00F0A7F8A4EB05048E
:1008100081EA030E52EA03354FEA013100F0888085
:100820004FEA03334FF0805545EA131343EA12634E
:100830004FEA022245EA111545EA10654FEA002603
:100840000EF000419D4208BF964244F1FD0404F5BC
:10085000407402D25B084FEA3202B61A65EB030518
:100860005B084FEA32024FF480104FF4002CB6EBD5
:10087000020E75EB030E22BFB61A754640EA0C0055
:100880005B084FEA3202B6EB020E75EB030E22BF95
:10089000B61A754640EA5C005B084FEA3202B6EBD6
:1008A000020E75EB030E22BFB61A754640EA9C0095
:1008B0005B084FEA3202B6EB020E75EB030E22BF65
:1008C000B61A754640EADC0055EA060E18D04FEA23
:1008D000051545EA16754FEA06164FEAC30343EAC3
:1008E00052734FEAC2025FEA1C1CC0D111F4801F90
:1008F0000BD141EA00014FF000004FF0004CB6E789
:1009000011F4801F04BF01430020B4F1FD0C88BF27
:10091000BCF5E06F3FF6AFAEB5EB030C04BFB6EB32
:10092000020C5FEA500C50F1000041EB045170BD25
:100930000EF0004E4EEA113114EB5C04C2BFD4EB52
:100940000C0541EA045170BD41F480114FF0000ED6
:10095000013C90E645EA060E8DE60CEA135594EA52
:100960000C0F08BF95EA0C0F3FF43BAF94EA0C0F55
:100970000AD150EA01347FF434AF95EA0C0F7FF4CA
:1009800025AF104619462CE795EA0C0F06D152EA1E
:1009900003353FF4FDAE1046194622E750EA410602
:1009A00018BF52EA43067FF4C5AE50EA41047FF413
:1009B0000DAF52EA43057FF4EBAE12E74A0011D2C5
:1009C00012F5001211D20DD56FF47873B3EB6252A9
:1009D0000ED44FEAC12343F0004343EA505323FAB5
:1009E00002F070474FF00000704750EA013002D12A
:1009F0004FF0FF3070474FF00000704753B94AB9CD
:100A0000002908BF00281CBF4FF0FF314FF0FF3016
:100A100000F072B9ADF1080C6DE904CE00F006F8F3
:100A2000DDF804E0DDE9022304B070472DE9F0476A
:100A3000089E04468846002B4BD18A42154667D94A
:100A4000B2FA82F24AB1C2F1200701FA02F320FAA7
:100A500007F7954047EA030894404FEA154E230CE8
:100A6000B8FBFEF71FFA85FC0EFB178843EA084324
:100A700007FB0CF1994209D9EB1807F1FF3080F020
:100A80001B81994240F21881023F2B445B1AA4B2A9
:100A9000B3FBFEF00EFB103344EA034400FB0CFCF6
:100AA000A44509D92C1900F1FF3380F00781A44532
:100AB00040F2048102382C4440EA0740A4EB0C04C5
:100AC00000271EB1D4400023C6E900433946BDE8E3
:100AD000F0878B4209D9002E00F0EB800027C6E991
:100AE000000138463946BDE8F087B3FA83F7002F96
:100AF00047D18B4202D3824200F2FA80841A61EB22
:100B0000030301209846002EE0D0C6E90048DDE747
:100B100002B9FFDEB2FA82F2002A40F08F80491B50
:100B20004FEA154E1FFA85F80127B1FBFEFC230C96
:100B30000EFB1C1143EA014308FB0CF1994207D953
:100B4000EB180CF1FF3002D2994200F2CD808446BE
:100B5000591AA3B2B1FBFEF00EFB101443EA044491
:100B600008FB00F8A04507D92C1900F1FF3302D289
:100B7000A04500F2B6801846A4EB080440EA0C40F9
:100B80009FE7C7F1200CBB4022FA0CFE4EEA030E91
:100B900001FA07F420FA0CF521FA0CF34FEA1E488B
:100BA0002543B3FBF8F92C0C08FB19331FFA8EFA16
:100BB00044EA034309FB0AF49C4202FA07F200FAF2
:100BC00007F10BD91EEB030309F1FF3080F087809A
:100BD0009C4240F28480A9F1020973441B1BADB210
:100BE000B3FBF8F008FB103345EA034400FB0AFAB4
:100BF000A24508D91EEB040400F1FF336BD2A245D5
:100C000069D90238744440EA0940A0FB0289A4EB88
:100C10000A044C45C2464B4654D351D0002E69D0ED
:100C2000B1EB0A0564EB030404FA0CFCFD40FC4044
:100C30004CEA0505C6E90054002747E7C2F1200346
:100C400020FA03F7954001FA02F021FA03F34FEA84
:100C5000154E3843010CB3FBFEF71FFA85F80EFB67
:100C6000173341EA034107FB08F38B4204FA02F40D
:100C700007D9691807F1FF3C2FD28B422DD9023FCB
:100C80002944CB1A81B2B3FBFEF00EFB103341EACC
:100C9000034100FB08F38B4207D9691800F1FF3CC0
:100CA00017D28B4215D902382944C91A40EA07479E
:100CB0003BE73746304609E70746E7E61846FBE6D6
:100CC0004145ABD2B8EB020A69EB0E02013813467C
:100CD000A4E76046E9E7184695E76746D1E781460D
:100CE0007CE702382C4447E7ACF1020C2B442FE799
:100CF000384608E73746E9E6704700BF10F8012B91
:100D000011F8013B012A28BF9A42F7D0D01A704748
:100D1000034613F8012B002AFBD1181A013870473B
:100D200001F0FF01102A2BDB10F0070F08D010F89C
:100D3000013B013A8B422DD010F0070F42B3F6D1A0
:100D4000F0B441EA012141EA014122F007047FF0B9
:100D500000070023F0E80256083C85EA010586EA10
:100D6000010685FA47F5A3FA87F586FA47F6A5FA4C
:100D700087F68EB9EED1F0BC01F0FF0102F0070258
:100D800032B110F8013B013A83EA010313B1F8D103
:100D90000020704701387047002D06BF35460338E4
:100DA000073815F0010F07D1013015F4807F02BF1D
:100DB000013015F4C03F0130F0BC0138704700BF6E
:100DC000104B1B680BB90120704710B504464FF457
:100DD0007A70B0FBF3F30C4A1068B0FBF3F000F04C
:100DE00025FC68B90F2C01D901200AE00022214618
:100DF0004FF0FF3000F0C6FB024B5C60002000E0CB
:100E0000012010BD00000020A003002010B5032029
:100E100000F0A6FB0E20FFF7D3FF10B101242046FF
:100E200010BD04460AF0E0FEF9E70000034A13682B
:100E3000034909680B441360704700BF8C120020FF
:100E400000000020014B1868704700BF8C12002082
:100E500038B50446FFF7F6FF0546B4F1FF3F02D070
:100E6000044B1B681C44FFF7EDFF401BA042FAD364
:100E700038BD00BF0000002030B583B000230193CF
:100E8000002800F017810446C36D03B323689A68F5
:100E900012F0005F05D09A6822F0204222F03F0253
:100EA0009A602268936813F0805F1DD1936823F0E5
:100EB000104323F03F0343F0805393607E4B1B6845
:100EC0009B097E4AA2FB03239B09019309E007F0DB
:100ED00039F90023236684F85830D7E7019B013B9A
:100EE0000193019B002BF9D123689A6812F0805F6F
:100EF00040F09E80E26D42F01002E265226E42F008
:100F00000102226601209A6812F0040F00F092801C
:100F10000121E26D12F0100F40F0C580002940F071
:100F2000C280E26D22F4817242F00202E2659B68A7
:100F300013F0010F15D14FF0A0439B6813F0010F80
:100F40007AD001225E4B9B6813F0010F76D001230B
:100F5000134306D163685B498A6822F47C12134309
:100F60008B60627FE36B43EA4233E2681343A2681B
:100F7000134394F8242043EA0243012A60D0E26A32
:100F800022B102F47872216B0A4313432168CD68C1
:100F90004D4A2A401343CB602268136923F0406313
:100FA000616B0B43136123689A6812F0040F4CD0F5
:100FB00001219A6812F0080F49D0012249BB42BBB7
:100FC000217F94F83820520042EA8131DA6822F415
:100FD000804222F002020A43DA602369002B38D0F3
:100FE0002268136943F4803313612268D2F8C03059
:100FF00023F47F5323F03F0321690B43C2F8C03031
:1010000094F84030012B33D02268136923F0010398
:1010100013616369012B3DD02268136B23F00F032A
:101020001363E36D23F0030343F00103E3653FE043
:10103000002068E700216CE7002283E7002387E7B0
:10104000A26A013A43EA424399E70021B1E700224C
:10105000B4E72268136923F4803313612268D2F85D
:10106000C03023F47F5323F03F03C2F8C030C7E7FA
:1010700021680B6923F4FF6323F00403626CA56C01
:101080002A43E56C2A43256D2A43134343F00103A9
:101090000B61BEE721680B6B23F00F03226A013A54
:1010A00013430B63BDE7E36D43F01003E3650120D9
:1010B00003B030BD0120FBE7A0030020632D3E05F7
:1010C00000010050000300500740F0FFF0B482B070
:1010D0000022019290F85820012A00F0368203463F
:1010E000012280F858200668B06810F0040F0AD07A
:1010F000DA6D42F02002DA650120002283F85820E0
:1011000002B0F0BC70474D680C6830362A0A920075
:1011100002F00C02B05805F01F051F27AF4020EA6F
:101120000700C4F38464AC402043B0501A68906850
:1011300010F0040F00F08F800120946814F0080F65
:1011400000F08B80012500284ED1002D4CD18C68F9
:10115000B4F1004F00F083800F681432780E8000E5
:1011600000F004001658C7F304574FF0070C0CFAB0
:1011700007FC26EA0C06BC40344314501868426948
:1011800022F0004242614A691C68E068C0F3C10075
:10119000400002FA00F00E69042E78D0603454F852
:1011A0002670BD4A3A400F6807F0F84738430243BB
:1011B00042F0004244F826201A680E6988696032BD
:1011C00052F8264024F08074204342F82600186824
:1011D0000C690A7F012A57D0603050F8242022F091
:1011E00000722A4340F824201868826812F0010F28
:1011F00016D10A68CD68D0F8B040C2F3120624EACE
:10120000060405F01806A54DF5402A40C2F3120267
:101210002243C0F8B020C868A14A904200F09380F1
:101220000A68A0490A4200F088819F49896801F054
:10123000E0709E4CA24200F024819D4CA24200F03E
:1012400020819C4CA24200F055819B4CA24200F0B0
:101250006381002051E700206FE7002573E70C68E9
:101260001432600E800000F004001658C4F30454D9
:10127000072707FA04F426EA0404145018684269A0
:1012800042F0004242617EE74FF00075A4E7226E13
:10129000206EC0F384600A68C2F3120585BBC2F3F6
:1012A0008462904231D01C68626E606EC0F38460CC
:1012B0000A68C2F312056DBBC2F3846290422ED05D
:1012C0001C68A26EA06EC0F384600A68C2F31205A7
:1012D00055BBC2F3846290422BD01C68E26EE06E74
:1012E000C0F384600A68C2F312053DBBC2F3846296
:1012F00090427FF479AFE26E22F00042E26673E73B
:1013000092FAA2F2B2FA82F2CBE7226E22F0004207
:101310002266C8E792FAA2F2B2FA82F2CEE7626ED1
:1013200022F000426266CBE792FAA2F2B2FA82F2AF
:10133000D1E7A26E22F00042A266CEE792FAA2F2B4
:10134000B2FA82F2D4E71D680A68C2F3120696BBAD
:10135000900E013000F01F0009288CBF00200120F2
:10136000002852D09EBB940E0134A40604F0F84429
:10137000B6BB900E013000F01F070120B8400443B7
:10138000C6BB920E013202F01F0202EB42021205AE
:1013900022438C681435500E800000F004002E5853
:1013A000C2F304520727974026EA070604FA02F21E
:1013B00032432A5034E792FAA2F0B0FA80F00130BA
:1013C00000F01F0009288CBF00200120C8E792FA16
:1013D000A2F4B4FA84F40134A40604F0F844C7E794
:1013E00092FAA2F0B0FA80F0013000F01F0701205D
:1013F000B840C4E792FAA2F2B2FA82F2013202F0E5
:101400001F0202EB42021205C2E7CEB9940E01346C
:10141000A40604F0F844E6B9900E013000F01F076E
:101420000120B8400443F6B9900E013000F01F00CF
:1014300000EB40021E3A120542F000722243A8E778
:1014400092FAA2F4B4FA84F40134A40604F0F84445
:10145000E1E792FAA2F0B0FA80F0013000F01F0745
:101460000120B840DEE792FAA2F0B0FA80F0013035
:1014700000F01F0000EB40021E3A120542F000721D
:10148000DCE711F4000F7FF4DCAE1A68B2F1A04F74
:1014900014D0002031E600BF00F0FF03FFFF07007B
:1014A00000007F400000088000030050000021C3BE
:1014B0001000C090000052C7000084CB40F4000030
:1014C00023498A6822F0E07210438860214A12683A
:1014D00092092149A1FB0212920902EB42029100FA
:1014E000019102E0019A013A0192019A002AF9D190
:1014F000002002E611F0807F7FF4A7AE1968174A3A
:1015000091421CD040F0807011498A6822F0E0724C
:10151000104388600020F0E511F4800F11D11968A4
:101520000E4A91420FD040F480020948816821F0B0
:10153000E0710A4382600020DFE50020DDE5002045
:10154000DBE50020D9E50020D7E50220D8E500BF83
:1015500000030050A0030020632D3E050001005051
:10156000074AD36823F4E0631B041B0C000200F459
:10157000E060184340F0BF6040F40030D060704736
:1015800000ED00E030B4174BDB68C3F30223C3F176
:101590000704042C28BF04241D1D062D18D9033B65
:1015A0004FF0FF3505FA04F421EA0401994005FAE9
:1015B00003F322EA0303194300280BDB0901C9B234
:1015C00000F1604000F5614080F8001330BC7047C6
:1015D0000023E5E700F00F000901C9B2024B1954DE
:1015E000F4E700BF00ED00E014ED00E0002807DBA9
:1015F00000F01F02400901239340024A42F82030C4
:10160000704700BF00E100E000280CDB00F01F0283
:101610004009012393402030034A42F82030BFF3B1
:101620004F8FBFF36F8F704700E100E00138B0F1DA
:10163000807F0AD2064B5860064AF02182F82310B8
:101640000020986007221A6070470120704700BF91
:1016500010E000E000ED00E0002808DB00F01F02D1
:101660004009012393406030014A42F8203070471E
:1016700000E100E0002838D010B50446437F1BB3DA
:101680000223637723791BBB2368194A5A612268B6
:10169000936823F018039360637913BB23684FF0BA
:1016A000FF321A612268936823F0600361690B437B
:1016B00093602268936823F08003A1690B439360D1
:1016C00001236377002010BD037707F095FCD7E76F
:1016D000E268A168204600F00DF80028DCD0012067
:1016E000F1E7236822691A61DCE70120704700BF37
:1016F000B71DC10430B41F24651E3CB105F01F03A3
:1017000021FA03F32C4613F0010FF5D0182A23D841
:10171000DFE802F00F222222222222221E2222228F
:10172000222222221A222222222222220D00062DE9
:1017300014D80368596101688B6823F018031A43B1
:101740008A60002030BC7047072DF2D90120F9E7EC
:101750000F2DEED90120F5E70120F3E70120F1E795
:1017600070B4C46C056D6560446D14B1846DC56D55
:101770006560446C04F01F05066C0124AC40746085
:10178000046863608368102B05D003689960036860
:10179000DA6070BC704703689A600368D960F8E744
:1017A00003680C4A934213D90B49DBB2083B0B4A3E
:1017B000A2FB0323426C22F003020A448264084A1B
:1017C000C264C3F30413012202FA03F303657047F2
:1017D0000449EAE70704024020080240CDCCCCCC03
:1017E00080080240000802400379074A1A44920028
:1017F0004265064A8265013B03F01F03012202FA9B
:1018000003F3C365704700BF3F82001040090240E8
:1018100000285CD010B5044602682E4B9A423ED890
:101820002D4B13442D4AA2FB03231B099B00436449
:101830002B4B0364022384F8253021680A6822F4C4
:10184000FF4222F07002A368E0680343206903436B
:1018500060690343A0690343E0690343206A0343CB
:1018600013430B602046FFF79BFFA368B3F5804F3F
:1018700020D0A36C22791A60E36C226D5A606368F1
:10188000013B032B19D900236365A365E3650020A1
:10189000E063012384F8253084F8240010BD114B47
:1018A00013440E4AA2FB03231B099B0043640E4B07
:1018B0000364BFE700236360DBE72046FFF794FF84
:1018C000636D00221A60A36DE26D5A60DFE70120AC
:1018D000704700BF07040240F8FFFDBFCDCCCCCC61
:1018E00000000240F8FBFDBF0004024038B590F84C
:1018F0002440012C42D0012480F8244090F8254057
:10190000E4B2012C04D0002380F82430022038BD3A
:101910000446022084F825000020E063256828683A
:1019200020F0010028602046FFF71AFF236BD3B197
:101930002268136843F00E031360A36C1A6812F454
:10194000803F03D01A6842F480721A60636D1BB145
:101950001A6842F480721A602268136843F0010327
:1019600013600020D3E72268136823F00403136098
:101970002268136843F00A031360DEE70220C6E71B
:1019800008B590F82530DBB2022B09D00423C363DD
:10199000012380F82530002280F82420184608BD55
:1019A0000268136823F00E0313600268136823F0C3
:1019B00001031360826C136823F480731360436C1B
:1019C00003F01F02016C012393404B60C36C026D56
:1019D0005A60436D33B11A6822F480721A60836DC5
:1019E000C26D5A60012380F82530002380F824302E
:1019F000836B13B198470020D1E70020CFE738B5BB
:101A0000036C196804682568436C03F01F03042203
:101A10009A400A4215D015F0040F12D0236813F033
:101A2000200F03D1236823F004032360436C03F0E9
:101A30001F02016C042393404B60036B03B1984772
:101A400038BD02229A400A421CD015F0020F19D06C
:101A5000236813F0200F06D1236823F00A032360C4
:101A6000012380F82530436C03F01F02016C022330
:101A700093404B60002380F82430C36A002BDFD0F2
:101A80009847DDE7082202FA03F30B42D8D015F09D
:101A9000080FD5D0236823F00E032360436C03F0B6
:101AA0001F03016C012202FA03F34B60C26380F84A
:101AB0002520002380F82430436B002BC0D09847AA
:101AC000BEE790F825007047F0B482B0002336E0FE
:101AD000052400E00024B4403C4302355E4E46F845
:101AE00025405E4C2568D44304EA05064F6817F488
:101AF000803F01D042EA0506584D2E606D6804EA29
:101B000005064F6817F4003F01D042EA0506534D21
:101B10006E60AD6804EA05064F6817F4801F01D0B7
:101B200042EA05064D4DAE60ED682C404E6816F455
:101B3000001F01D042EA0504484AD46001330A6814
:101B400032FA03F400F0858001249C402240F5D055
:101B50004D68022D01D0122D10D1DE08083650F844
:101B600026C003F00705AF000F25BD402CEA050C89
:101B70000D69BD4045EA0C0540F8265006685F0037
:101B80000325BD40ED4305EA060C4E6806F003064A
:101B9000BE4046EA0C0606604E6806F1FF3CBCF10A
:101BA000010F03D9112E01D0122E10D1866805EA3B
:101BB000060CCE68BE4046EA0C068660466826EAF9
:101BC00004044E68C6F300169E4026434660C4686F
:101BD00025408C68BC402C43C4604C6814F0805F86
:101BE000ACD01F4C256E45F001052566246E04F02F
:101BF00001040194019C9D08AE1C174C54F82670FA
:101C000003F00304A6000F24B44027EA0407B0F150
:101C1000904F3FF45FAF134CA04212D004F58064A4
:101C2000A04210D004F58064A0420ED004F5806478
:101C3000A0420CD004F58064A0423FF449AF0624D2
:101C400049E7012447E7022445E7032443E7042446
:101C500041E702B0F0BC70470000014000040140C1
:101C600000100240000400480369194201D100201D
:101C70007047012070470AB98162704781617047DF
:101C800008B5054B5B69034200D108BD024B5861A2
:101C900007F0A4FDF9E700BF0004014003689A695A
:101CA00012F0020F01D000229A6203689A6912F0C2
:101CB000010F03D19A6942F001029A61704770B432
:101CC000039E05686868740D04F4806444F07F74B2
:101CD00044F4583444F47F7444F0030420EA0400CC
:101CE000C1F3090141EA02411943314301436960EB
:101CF00070BC7047436B1D4A934217D01C4A9342F5
:101D000014D011F0040F2FD1002311F0010F01D0D6
:101D100043F0F20311F0020F01D043F0F40301F09D
:101D20001201122910D143F020030DE011F0040F2D
:101D30000FD1002301F01102112A0CD001F0120181
:101D400012290BD012290CD001680A6813430B60CA
:101D50007047B823EEE743F09003EFE743F020032A
:101D6000F0E743F04003EFE7B823CEE70929000886
:101D70001128000811F0010F09D090F8413003F04C
:101D80002803282B01D0F22302E0422300E00023A5
:101D900011F0020F2CD010B443F0440490F841200D
:101DA00002F02802282A18D043F0F40311F0040F9F
:101DB00001D043F0B80301F01102112A0FD001F055
:101DC000120112290ED012290FD001680A6822EAE6
:101DD00003030B605DF8044B70472346E6E743F0CE
:101DE0009003ECE743F02003EDE743F04003ECE71A
:101DF00011F0040F01D043F0B80301F01102112AD1
:101E00000BD001F0120112290AD012290BD001685F
:101E10000A6822EA03030B60704743F09003F0E77F
:101E200043F02003F1E743F04003F0E770B50446C8
:101E30000D46164603689B6913F0100F1CD02368EB
:101E40009A6912F0200F19D1B5F1FF3FF7D0FEF7D4
:101E5000F9FF801BA84201D8002DF0D1636C43F03C
:101E600020036364202384F84130002384F8423047
:101E700084F84030012020E000201EE01022DA61CA
:101E800023682025DD612046FFF708FF226853689C
:101E900023F0FF7323F48B3323F4FF7323F0010348
:101EA0005360636C43F00403636484F8415000237F
:101EB00084F8423084F84030012070BD70B504468B
:101EC0000D46164623689B6913F0020F1DD132465A
:101ED00029462046FFF7AAFFC8B9B5F1FF3FF1D068
:101EE000FEF7B0FF801BA84201D8002DEAD1636C39
:101EF00043F020036364202384F84130002384F8F6
:101F0000423084F84030012000E0002070BD012004
:101F1000FCE7F8B505460F4616461C462B689B693C
:101F200037EA03030CBF01230023B34218D1B4F1F5
:101F3000FF3FF3D0FEF786FF069BC01AA04201D8F0
:101F4000002CEBD16B6C43F020036B64202385F8ED
:101F50004130002385F8423085F84030012000E010
:101F60000020F8BD70B582B0044616461D46184BD9
:101F700000934FF08073EAB2FFF7A1FE079A06992B
:101F80002046FFF79BFFE8B9012D0ED12368F6B27A
:101F90009E62079B0093069B002280212046FFF74C
:101FA000B8FF034678B101230DE02368320A9A6234
:101FB000079A06992046FFF781FF38B92368F6B2E1
:101FC0009E62E6E70123184602B070BD0123FAE7DE
:101FD00000200080002859D010B5044690F8413008
:101FE000002B43D0242384F841302268136823F067
:101FF000010313606368226823F070631361226831
:10200000936823F400439360E368012B33D0A36803
:10201000226843F404439360E368022B31D02268C2
:10202000536843F0007343F4004353602268D3685D
:1020300023F40043D360236962691343A1692268D2
:1020400043EA0123D360E369216A22680B431360EA
:102050002268136843F001031360002060642023AA
:1020600084F84130206384F8420010BD80F840308D
:1020700007F068F9B6E7A368226843F40043936069
:10208000CAE723684FF400625A60C8E7012070472E
:102090002DE9F04182B0BDF8246090F84140E4B2EF
:1020A000202C40F09880089C002C5BD0002E59D04A
:1020B0000468A46914F4004F40F0928090F8404006
:1020C000012C00F08F80984614460F4605460123E8
:1020D00080F84030FEF7B6FE212385F841304023DA
:1020E00085F8423000236B64089B6B626E853E4B23
:1020F000EB623E4B6B636B8D9BB2FF2B37D9FF239B
:102100002B854FF080760190192300934346224699
:1021100039462846FFF726FF00282DD1AB6B002B50
:102120002FD0334ADA62AB6B324A5A63AA6B002370
:102130001363AA6B93632A682B8D28320899A86BC6
:10214000FFF7D4FB044650B3202385F8413000222A
:1021500085F842206B6C43F010036B6485F84020D7
:10216000012439E04FF400734364012434E06B8DA3
:102170002B854FF00076C6E7002385F84030012418
:102180002AE0202385F84130002285F842206B6C3C
:1021900043F080036B6485F8402001241CE095F82F
:1021A00028204FF00008CDF80080334639462846F5
:1021B000FFF785FD6B8D2A8D9B1A9BB26B8585F889
:1021C000408011212846FFF795FD2A68136843F4E3
:1021D0008043136000E00224204602B0BDE8F08195
:1021E0000224F9E70224F7E70000FFFF09290008AD
:1021F0005F2A0008492A000808B5036899691A6827
:10220000436B03B1984708BD7047704738B5044623
:10221000002380F8423090F84130DBB2212B0FD000
:10222000202380F8413012230363002545630221F7
:10223000FFF7A0FD84F840502046FFF7E6FF38BDC9
:10224000202380F8413011230363002545630121D9
:10225000FFF790FD84F840502046FFF7D5FFEEE7EA
:102260007047704710B50446002380F8423090F85C
:102270004130DBB2292B05D090F84130DBB22A2B5C
:102280000FD010BD282380F84130212303630121A2
:10229000FFF770FD002384F840302046FFF7E0FF91
:1022A000EFE7282380F84130222303630221FFF760
:1022B00061FD002384F840302046FFF7D2FFE0E7BD
:1022C0007047F8B590F8413003F02803282B06D06A
:1022D00003680822DA61002380F84030F8BD044624
:1022E00003689E69C6F300469A69120C02F0FE0567
:1022F0009A68C2F30902DF6807F0FE07C168022985
:1023000021D185EAD21515F0060F10D1816C01316B
:102310008164816C0229E1D1002181640820D861A7
:1023200084F8401031462046FFF7CAFFD6E7042163
:10233000FFF720FD002384F840303A46314620461E
:10234000FFF7BEFFCAE70421FFF714FD002384F85E
:1023500040302A4631462046FFF7B2FFBEE77047BD
:1023600010B50446164BC36200230363202280F895
:10237000412080F84230436311F0040F12D003680B
:102380005A6A436A1A70436A01334362038D4BB140
:10239000013B0385438D013B9BB24385436C43F076
:1023A0000403436407212046FFF7E4FC236810225E
:1023B000DA61002384F840302046FFF7D0FF10BDDB
:1023C0000000FFFF704770477047000010B50446DB
:1023D00090F84130002280F842203648E062628561
:1023E000626C11436164283BDBB2022B22D80321CB
:1023F0002046FFF7BFFC282384F8413000232363E5
:102400002D4B636323681A6812F4804F22D01A6838
:1024100022F480421A60A36B5BB1284A9A630023BE
:1024200084F84030A06BFFF7ABFA10B1A06B836B60
:10243000984710BD07212046FFF79CFC94F84130D7
:10244000DBB2602B02D0202384F8413000232363C9
:102450006363D7E71A6812F4004F14D01A6822F4A5
:1024600000421A60E36B002BE3D0144A9A63002306
:1024700084F84030E06BFFF783FA0028D9D0E06B96
:10248000836B9847D5E794F84130DBB2602B06D0D8
:10249000002384F840302046FFF795FFC9E720234A
:1024A00084F84130002384F840302046FFF78CFF49
:1024B000BFE700BF0000FFFFE1250008232B000855
:1024C00070B504460D4603681E682022DA610721B4
:1024D000FFF750FC2268536843F4004353602268BE
:1024E000536823F0FF7323F48B3323F4FF7323F03B
:1024F000010353602046FFF7D1FB16F4804F3AD01A
:10250000A36B1BB11B685B689BB2638515F0040F5E
:1025100010D025F0040523685A6A636A1A70636A4A
:1025200001336362238D2BB1013B2385638D013B16
:102530009BB26385638D9BB21BB1636C43F0040354
:1025400063640023236384F842306363636CEBB9F4
:10255000E36A13F5803F27D194F84130DBB2222B98
:1025600031D0202384F84130002384F840302046C5
:10257000FFF776FE26E016F4004FC7D0E36B002B82
:10258000C4D01B685B689BB26385BFE7616C204663
:10259000FFF71CFF94F84130DBB2282B12D12946FB
:1025A0002046FFF7DDFE0DE02046FFF75BFE0B4BFC
:1025B000E362202384F84130002384F84030204631
:1025C000FFF7CDFE70BD202384F84130002384F84E
:1025D00040302046FFF745FEF4E700BF0000FFFF54
:1025E00070B51646C26A90F84030012B00F09D800D
:1025F00004460D46012380F8403011F0100F3FD003
:1026000016F0100F3CD0438D9BB24BBB90F841307D
:10261000DBB2282B11D094F84130DBB2292B12D039
:1026200023681022DA6115F0200F02D016F0200F77
:1026300076D1002084F8400070BDB2F1007FEAD16D
:10264000FFF78EFEEFE712F5803FE9D023681022F6
:10265000DA612046FFF722FB2046FFF703FEE2E7A0
:1026600003681021D961436C43F00403436412B141
:10267000B2F1807FD7D1616C2046FFF7A7FED2E789
:1026800015F0040F20D016F0040F1DD0638D9BB2FF
:102690007BB125F004052368596A636A1970636A7F
:1026A00001336362238D013B2385638D013B9BB224
:1026B0006385638D9BB2002BB5D112F5803FB2D0FC
:1026C0002046FFF7CFFDAEE715F0080F02D016F059
:1026D000080F17D115F0020FA5D016F0020FA2D0E7
:1026E000638D9BB29BB1626A236812789A62636AB7
:1026F00001336362638D013B9BB26385238D013B94
:10270000238590E729462046FFF7DBFD8BE7B2F1F2
:10271000807F01D0002A86D12046FFF7A3FD82E703
:1027200029462046FFF7CCFE83E7022084E710B558
:10273000044603682022DA610268536823F0FF73BD
:1027400023F48B3323F4FF7323F00103536000233E
:1027500003634363A3F58033C36211F0100F06D007
:1027600003681022DA61436C43F00403436420469B
:10277000FFF794FA03212046FFF7FCFA626C94F805
:102780004130DBB2602B1BD0D2B994F84130DBB2C0
:10279000212B1AD094F84130DBB2222B14D1202304
:1027A00084F8413094F84230DBB2402B27D000232C
:1027B00084F8423084F840302046FFF726FD03E0DD
:1027C000616C2046FFF702FE10BD202384F84130E3
:1027D00094F84230DBB2402B08D0002384F842301A
:1027E00084F840302046FFF70FFDEDE7002384F822
:1027F000423084F84030204609F02EF9E4E7002307
:1028000084F8423084F840302046FFF7DBFDDBE7F8
:1028100038B5C56A90F84030012B73D004460123C7
:1028200080F8403011F0100F54D012F0100F51D03A
:10283000C2F3803313B912F4004F47D0E06B38B1C4
:1028400012F4004F06D002685268DAB1002002E0AC
:10285000002000E00020A26B1AB113B113685B687E
:1028600093B188B923681022DA61636C43F00403E2
:10287000636415B1B5F1807F38D1616C2046FFF7F4
:10288000A5FD33E00120E6E794F84130DBB2282BC8
:1028900008D094F84130DBB2292B0AD023681022EB
:1028A000DA6123E0B5F1007FF3D12046FFF758FD50
:1028B0001CE015F5803FF1D023681022DA61204634
:1028C000FFF7ECF92046FFF7CDFC0FE0036810227C
:1028D000DA610BE011F0080F02D012F0080F09D1F5
:1028E00011F0200F02D012F0200F07D1002084F841
:1028F000400038BD2046FFF7E4FCF7E72046FFF72D
:10290000DFFDF3E70220F4E790F84030012B00F000
:10291000998010B582B00446012380F8403011F050
:10292000100F02D012F0100F31D111F0800F5FD0D4
:1029300012F0400F5CD02268136823F0400313604C
:10294000638D9BB2002B45D023685968C1F3090100
:10295000638D9BB2FF2B2CD9FF2323854FF080730F
:1029600094F82820002000902046FFF7A8F9638DF6
:10297000228D9B1A9BB2638594F84130DBB2222BE7
:1029800022D02268136843F4804313600CE003688C
:102990001022DA61436C43F0040343641221FFF711
:1029A000A9F92046FFF77AF9002084F8400002B028
:1029B00010BD638D2385E36A13F5803F01D0E36A80
:1029C000CEE74FF00073CBE72268136843F400436F
:1029D0001360E9E723685B6813F0007F03D12046AA
:1029E000FFF714FCE0E740212046FFF7EFFCDBE7B0
:1029F00011F0400F1CD012F0400F19D0638D9BB224
:102A00008BB923685A6812F0007FCDD1E26A12F5C3
:102A1000803F04D15A6842F480425A60C4E720469D
:102A2000FFF7F4FBC0E740212046FFF7CFFCBBE7F0
:102A300011F0200FB8D012F0200FB5D02046FFF7CC
:102A400076FEB1E70220704708B5806A02685368D5
:102A500043F4004353601021FFF7B8FC08BD10B5E4
:102A6000846A2268136823F480431360638D9BB2E9
:102A7000ABB1238D616A19446162638D9BB2FF2BF8
:102A800012D9FF2323852268238D2832A06BFEF7FD
:102A90002DFF60B912212046FFF72CF910BD12213D
:102AA0002046FFF727F9F9E7638D2385EBE710212F
:102AB0002046FFF78BFCF1E710B5026893691168B7
:102AC00013F4807F09D011F0800F06D0446C44F0DD
:102AD000010444644FF48074D46113F4806F0AD00D
:102AE00011F0800F07D0426C42F008024264026885
:102AF0004FF48064D46113F4007F0AD011F0800F8A
:102B000007D0436C43F00203436403684FF4007240
:102B1000DA61416C11F00B0F00D110BDFFF756FCCC
:102B2000FBE708B5806A826B00239363C26B9363F3
:102B300090F84130DBB2602B02D0FFF744FC08BDB7
:102B4000202380F84130FFF73FFCF8E790F8413050
:102B5000DBB2202B24D190F84030012B22D001236E
:102B600080F84030242380F841300268136823F055
:102B7000010313600268136823F480531360026832
:102B80001368194311600268136843F0010313606E
:102B9000202380F84130002380F8403018467047E9
:102BA000022070470220704790F84130DBB2202BA2
:102BB00022D190F84030012B20D0012380F8403002
:102BC000242380F841300268136823F00103136066
:102BD0000268136823F4706343EA012111600268FC
:102BE000136843F001031360202380F84130002371
:102BF00080F8403018467047022070470220704726
:102C000000285CD0F0B587B0044690F829323BB17B
:102C1000032384F82932206803F0B6FE002316E06F
:102C200080F8283209F0EAFCF2E704EB43120121B4
:102C300082F8291082F82830D386002182F82B10E0
:102C40009163D1639A1C5201A1500133DBB26068D9
:102C50008342EAD3002312E004EB4311002281F8FF
:102C6000292181F8283181F82B21C1F83821C1F8B8
:102C70003C2103F10A01490162500133DBB2984261
:102C8000EAD8254655F8107B6E460FCD0FC62B6847
:102C90003360231D0ECB384603F080FE002384F8FA
:102CA0002430012384F82932E369012B02D000206B
:102CB00007B0F0BD204600F0F6FB0020F8E7012049
:102CC000704790F82832012B0ED010B5044601232E
:102CD00080F82832006804F093F9206803F04AFE77
:102CE000002084F8280210BD0220704790F8283296
:102CF000012B0DD010B50446012380F8283280F84E
:102D00002410006804F076F9002084F8280210BD31
:102D10000220704770B511F0800F23D101F0070534
:102D20006D0105F5947404440544002685F8296175
:102D300001F0070121702261E370627802B1E18144
:102D4000022B1AD090F82832012B19D00546012306
:102D500080F828322146006803F036FE002085F80E
:102D6000280270BD01F007056D0105F12804044437
:102D70000544012685F82960DAE700232371E1E79D
:102D80000220EEE710B511F0800F1CD101F007030F
:102D90005B0103F5947202440344002483F8294143
:102DA00001F00703137090F82832012B16D0044667
:102DB000012380F828321146006803F0BAFF002092
:102DC00084F8280210BD01F007035B0103F128021B
:102DD00002440344012483F82940E1E70220F1E79B
:102DE00070B501F007056C0104F5947101440444C9
:102DF000C4F83C2105F10A025201861883500023D1
:102E0000736084F8293184F8285125B1006804F0F2
:102E100019F9002070BD006804F014F9F9E701F019
:102E200007010A3100EB41114868704770B501F0A5
:102E300007056C0104F1280101440444E263AA1C63
:102E400052018618835000237360012384F82930CF
:102E500084F8285025B1006804F0F4F8002070BD13
:102E6000006804F0EFF8F9E7F8B504462068B0F818
:102E7000443013F4004F00F09F81B0F844309BB20F
:102E800013F00F0540F0C78013F0100F56D00388E1
:102E90009BB213F4006F40F0858013F4004FE5D02F
:102EA000038823F070031B051B0D43F08003038090
:102EB0002068B0F8503094F8282103EBC203034493
:102EC000B3F80634C3F30903C4F844318BB1D4F822
:102ED0003C1171B1B4F82E2104F044FAD4F8442125
:102EE000D4F83C311344C4F83C310021204609F0A9
:102EF000B5FB2368B3F850201344D4F83821002AD6
:102F000070D1B3F8062492B222F4F84292B2A3F838
:102F10000624B3F8062442F40042A3F806242268EB
:102F200013889BB223F4804323F0700383F440534F
:102F300043F4004343F08003138097E703889BB278
:102F400023F4E14323F070036FEA43436FEA5343F2
:102F50009BB203802268B2F8503094F8281003EB3B
:102F6000C1031344B3F80234C3F309036364E26B8F
:102F70001344E3630021204609F07AFB94F82430DF
:102F8000002B3FF473AF236C002B7FF46FAF94F8EA
:102F90002430226843F08003A2F84C30002384F8E8
:102FA000243063E7B0F8503094F8282103EBC203D3
:102FB0000344B3F80634C3F30903C4F84431B4F846
:102FC0002E2104F50C7104F0CDF92268138823F04A
:102FD00070031B051B0D43F080031380204609F08E
:102FE00035FB43E73E2A09D8510812F0010F00D003
:102FF0000131890289B2A3F8061490E7510912F051
:103000001F0F00D101396FEAC1626FEA524292B2DA
:10301000A3F8062483E730F82560B6B216F4004F13
:1030200031D116F0800F3FF421AF226832F82530FD
:103030009BB223F4E14323F070036FEA43436FEA4A
:1030400053439BB222F825302268B2F8503004EB8B
:10305000451090F8281003EBC1031344B3F8022481
:10306000C2F30902AB1C5B01E1184A60C16B0A4460
:10307000C263E358002B40F0978090F82810204658
:1030800009F0F6FAF2E630F8253023F070031B055C
:103090001B0D43F0800320F8253004EB451393F813
:1030A0003431C3B92068B0F8503004EB451292F8BF
:1030B000282103EBC2030344B3F80674C7F30907DE
:1030C0007FB304EB45113B46B1F82E21D1F83C11FA
:1030D00004F048F925E0206804EB451393F8282113
:1030E00030F8223013F4804F41D0B0F8503003EB69
:1030F000C2030344B3F80274C7F309076FBB226825
:1031000004EB451393F8281132F821309BB223F4D5
:10311000E04323F0700343F4004343F0C00322F87C
:10312000213005F10A035B01E1184A683A444A601C
:1031300004EB4511D1F83C213A44C1F83C21E35855
:103140001BB1D1F838118F4226D204EB451393F806
:103150002811204609F082FA63E704EB45113B464B
:10316000B1F83021D1F83C1104F0FCF8C7E7B0F811
:10317000503003EBC2030344B3F80674C7F30907E6
:10318000002FBCD004EB45113B46B1F83221D1F8F9
:103190003C1104F0E7F8B2E704EB451191F828116F
:1031A0002046FFF71DFE3CE704EB451595F8281077
:1031B0002046FFF73BFE59E60020F8BD10B5044657
:1031C000006803F025FF10F4004F40F0988020685D
:1031D00003F01EFF10F4806F40F09580206803F02C
:1031E00017FF10F4804F08D02268B2F844309BB229
:1031F00023F480439BB2A2F84430206803F008FF18
:1032000010F4005F08D02268B2F844309BB223F477
:1032100000539BB2A2F84430206803F0F9FE10F48A
:10322000805F21D02268B2F840309BB223F00403C3
:103230009BB2A2F840302268B2F840309BB223F033
:1032400008039BB2A2F8403094F86032012B6BD097
:10325000204609F03DFA2268B2F844309BB223F4CC
:1032600080539BB2A2F84430206803F0D1FE10F4E2
:10327000006F60D1206803F0CBFE10F0800F28D0E3
:103280002268B2F844309BB223F080039BB2A2F8CC
:10329000443094F86032002B6ED12268B2F840308E
:1032A00043F00403A2F840302268B2F8403043F003
:1032B0000803A2F84030012184F860122368B3F8B3
:1032C00054309B0803F03C03C4F86432204609F0F4
:1032D000B3FA206803F09CFE10F4007F50D1206800
:1032E00003F096FE10F4807F08D02268B2F84430D4
:1032F0009BB223F480739BB2A2F8443010BD2046E9
:10330000FFF7B2FD63E72268B2F844309BB223F4C2
:1033100080639BB2A2F84430204609F0B8F900213E
:103320002046FFF7E3FC59E7002184F860122046AD
:1033300009F082FA8CE72268B2F8403043F00803C3
:10334000A2F840302268B2F844309BB223F4006304
:103350009BB2A2F844302268B2F8403043F0040334
:10336000A2F84030206803F053FE10F4805F81D152
:10337000204609F09DF97DE7204609F099F9A8E774
:103380002268B2F844309BB223F400739BB2A2F8D7
:103390004430204609F075F9A1E738B501F007057A
:1033A00043689D422CD811F0800F1AD14B0103F5D0
:1033B000947101440344002283F8292101238B7076
:1033C0000D7090F82832012B1CD00446012380F8A0
:1033D0002832006803F098FD65B1002084F82802C7
:1033E0000FE06B0103F1280101440344012283F83B
:1033F0002920E3E704F50C71206803F00CFEECE7EC
:10340000012038BD0220FCE701F00F0243689A4218
:103410002DD810B511F0800F1ED101F007035B010C
:1034200003F5947202440344002483F829410023E5
:10343000937001F00703137090F82832012B18D015
:103440000446012380F828321146006803F081FD0C
:10345000002084F8280210BD01F007035B0103F18E
:10346000280202440344012483F82940DFE70120B5
:1034700070470220EFE711F0800F0CD001F0070138
:103480004901283101445AB101220A730B811B0CF6
:103490004B8100207047490101F594710144F2E726
:1034A0000A73CB80F5E7024603680121C0F8681271
:1034B000002082F86002B3F854200A43A3F8542095
:1034C000B3F8542042F00202A3F8542070470000E1
:1034D000002838D13E4B1B6803F4C063B3F5806FFE
:1034E00008D03B4AD2F8803023F48073C2F8803091
:1034F00000207047364AD2F8803023F48073C2F837
:103500008030136823F4C06343F400731360314BBD
:103510001A68322303FB02F32F4AA2FB03239B0CFE
:10352000013300E0013B2A4A526912F4806F01D056
:10353000002BF7D1264B5B6913F4806F01D100207B
:10354000704703207047B0F5007F08D0204A136809
:1035500023F4C06343F480631360002070471C4B66
:103560001B6803F4C063B3F5806F08D0184AD2F823
:10357000803043F48073C2F8803000207047144AD2
:10358000D2F8803043F48073C2F88030136823F49B
:10359000C06343F4007313600E4B1A68322303FBBD
:1035A00002F30D4AA2FB03239B0C013300E0013B15
:1035B000074A526912F4806F01D0002BF7D1044BF7
:1035C0005B6913F4806F01D10020704703207047BE
:1035D00000700040A003002083DE1B43124AD36822
:1035E00003F00303D068C0F303100130032B11D0A4
:1035F0000E4BB3FBF0F30C4AD068C0F3062000FB7F
:1036000003F0094BDB68C3F3416301335B00B0FB9C
:10361000F3F07047064BB3FBF0F3D068C0F306201D
:1036200000FB03F0EDE700BF001002400024F400AF
:10363000006CDC02002800F05E8270B582B00446A7
:10364000036813F0010F37D0B44A936803F00C03FA
:10365000D26802F003020C2B23D0082B23D063681E
:10366000B3F5803F4ED0B3F5A02F51D0AB4B1A68C5
:1036700022F480321A601A6822F480221A60636889
:10368000002B52D0FDF7DEFB0546A44B1B6813F45C
:10369000003F11D1FDF7D6FB401B6428F5D903206C
:1036A00032E2032AD9D19D4B1B6813F4003F03D0AB
:1036B0006368002B00F02182236813F0020F5DD0B5
:1036C000964A936803F00C03D26802F003020C2BB5
:1036D0003AD0042B3AD0E368002B75D08F4A136898
:1036E00043F480731360FDF7ADFB05468B4B1B68FD
:1036F00013F4806F5FD1FDF7A5FB401B0228F5D9BD
:10370000032001E2854A136843F480331360B6E76F
:1037100003F18043A3F53C331A6842F480221A6017
:103720001A6842F480321A60A9E7FDF78BFB054660
:103730007A4B1B6813F4003FBED0FDF783FB401BA0
:103740006428F5D90320DFE1022AC2D1734B1B683C
:1037500013F4806F03D0E368002B00F0D0816F4A30
:10376000536823F0FE43216943EA016353606C4BC5
:103770001868FDF725FB002840F0C381236813F08B
:10378000080F4CD063699BB3644AD2F8943043F07D
:103790000103C2F89430FDF755FB05465F4BD3F8A3
:1037A000943013F0020F3AD1FDF74CFB401B022876
:1037B000F4D90320A8E1594A536823F0FE43216954
:1037C00043EA01635360D9E7544A136823F48073D2
:1037D0001360FDF737FB0546504B1B6813F4806FF1
:1037E000CCD0FDF72FFB401B0228F5D903208BE13D
:1037F0004A4AD2F8943023F00103C2F89430FDF71E
:1038000021FB0546454BD3F8943013F0020F06D048
:10381000FDF718FB401B0228F4D9032074E123684C
:1038200013F0040F00F081803C4B9B6D13F0805F20
:1038300036D13A4B9A6D42F080529A659B6D03F0F7
:1038400080530193019B0125364B1B6813F4807F45
:1038500028D0A368012B39D0052B3FD02F4BD3F8AC
:10386000902022F00102C3F89020D3F8902022F09B
:103870000402C3F89020A368002B3DD0FDF7E2FAC4
:103880000646264BD3F8903013F0020F4CD1FDF7CB
:10389000D9FA801B41F288339842F2D9032033E1F0
:1038A0000025D1E71F4A136843F480731360FDF7C6
:1038B000C9FA06461B4B1B6813F4807FC9D1FDF77C
:1038C000C1FA801B0228F5D903201DE1134AD2F862
:1038D000903043F00103C2F89030CCE70F4BD3F89F
:1038E000902042F00402C3F89020D3F8902042F0D8
:1038F0000102C3F89020BEE7FDF7A4FA0646074B85
:10390000D3F8903013F0020F0ED0FDF79BFA801B16
:1039100041F288339842F2D90320F5E000100240CA
:103920000400002000700040E5B9236813F0200F68
:1039300035D0A369E3B1774AD2F8983043F0010358
:10394000C2F89830FDF77EFA0546724BD3F89830EE
:1039500013F0020F23D1FDF775FA401B0228F4D9AA
:103960000320D1E06B4A936D23F080539365DCE72D
:10397000684AD2F8983023F00103C2F89830FDF776
:1039800061FA0546634BD3F8983013F0020F06D066
:10399000FDF758FA401B0228F4D90320B4E0E3698C
:1039A000002B00F0B0805B4A926802F00C020C2AF7
:1039B00069D0022B1DD0574B1A6822F080721A6012
:1039C000DA6822F00302DA60DA6822F0887222F400
:1039D0008032DA60FDF736FA04464E4B1B6813F06E
:1039E000007F4ED0FDF72EFA001B0228F5D90320E8
:1039F0008AE0484A136823F080731360FDF722FAC7
:103A00000546444B1B6813F0007F06D0FDF71AFAF9
:103A1000401B0228F5D9032076E03E4AD3683E4990
:103A20001940236A606A013843EA0013A06A43EA36
:103A30000023206B4008013843EA4053606B400884
:103A4000013843EA4063E06A43EAC0630B43D36052
:103A5000136843F080731360D36843F08073D360BE
:103A6000FDF7F0F904462B4B1B6813F0007F06D1DD
:103A7000FDF7E8F9001B0228F5D9032044E00020F7
:103A800042E0002040E0012B40D0224BDB6803F0F5
:103A90000301226A914201D0012035E003F0F002D7
:103AA000616A0139B2EB011F01D001202CE003F45F
:103AB000FE42A16AB2EB012F01D0012024E003F005
:103AC0007842E16AB2EBC16F01D001201CE003F43F
:103AD000C001226B5208013AB1EB425F01D00120D4
:103AE00012E003F0C063626B5208013AB3EB426F1D
:103AF0000ED0012008E001207047012004E00120E1
:103B000002E0012000E0002002B070BD0120FBE7D0
:103B10000020F9E7001002400C809F011E4B9B68BB
:103B200003F00C03042B33D01B4B9B6803F00C03F6
:103B3000082B2FD0184B9B6803F00C030C2B01D0E3
:103B400000207047144BDA6802F00302DB68C3F30D
:103B500003130133032A11D11048B0FBF3F30E4ACB
:103B6000D068C0F3062000FB03F00B4BDB68C3F307
:103B7000416301335B00B0FBF3F070470848B0FBD2
:103B8000F3F3054AD068C0F3062000FB03F0ECE72E
:103B9000034870470148704700100240006CDC0287
:103BA0000024F400002800F0EA80F8B50446764BC3
:103BB0001B6803F00F038B420CD2734A136823F087
:103BC0000F030B431360136803F00F038B4201D004
:103BD0000120B3E00D46236813F0010F61D0636844
:103BE000032B15D0022B33D0684B1B6813F4806F66
:103BF00000F0C780FFF792FF654B984235D9634AC2
:103C0000936823F0F00343F08003936080272DE056
:103C10005E4B1B6813F0007F01D101208EE0FFF79F
:103C2000DDFC5B4B98421AD9584B9B6813F0F00FA0
:103C300005D0236813F0020F13D0A3689BB9534A31
:103C4000936823F0F00343F08003936080270DE036
:103C50004E4B1B6813F4003FCCD101206EE00027CF
:103C600004E0002702E0002700E00027474A9368AD
:103C700023F0030361680B439360FDF7E3F8064606
:103C8000424B9B6803F00C036268B3EB820F09D0D0
:103C9000FDF7D8F8801B41F288339842F0D9032011
:103CA0004CE00027236813F0020F48D013F0040FF4
:103CB00004D0364A936843F4E0639360236813F0BA
:103CC000080F06D0314A936823F47C5343F4E06331
:103CD00093602E4A936823F0F003A1680B4393602E
:103CE000294B1B6803F00F03AB4230D8236813F055
:103CF000040F06D0254A936823F4E063E1680B4380
:103D00009360236813F0080F07D0204A936823F4C8
:103D10006053216943EAC1039360FFF7FFFE1B4B29
:103D20009B68C3F303131B4AD35C03F01F03D84003
:103D3000194B1860194B1868FDF742F8F8BD002FB1
:103D4000CED0124A936823F0F0039360C8E70E4A7E
:103D5000136823F00F032B431360FDF773F8064637
:103D6000094B1B6803F00F03AB42BFD0FDF76AF8A5
:103D7000801B41F288339842F2D90320DEE701200C
:103D800070470120DAE700BF002002400010024027
:103D900000B4C4043C080108A00300200400002073
:103DA000014B1868704700BFA003002008B5FFF75B
:103DB000F7FF054B9B68C3F30223044AD35C03F06F
:103DC0001F03D84008BD00BF001002404C08010886
:103DD00008B5FFF7E5FF054B9B68C3F3C223044A10
:103DE000D35C03F01F03D84008BD00BF00100240A1
:103DF0004C080108F0B583B00446036813F4002FA3
:103E000069D0B34B9B6D13F0805F1ED1B04B9A6DA0
:103E100042F080529A659B6D03F080530193019BA1
:103E20000126AC4A136843F480731360FDF70AF867
:103E30000546A84B1B6813F4807F08D1FDF702F8F4
:103E4000401B0228F5D9032502E00026E9E70025FA
:103E500045BB9F4BD3F8903013F4407315D0226CC0
:103E60009A4212D09A4AD2F8903023F44073D2F892
:103E7000901041F48031C2F89010D2F8901021F4E3
:103E80008031C2F89010C2F8903013F0010F10D1B9
:103E900045B98F4AD2F8903023F44073216C0B431C
:103EA000C2F89030C6B18A4A936D23F0805393656F
:103EB00012E0FCF7C7FF0746854BD3F8903013F0AC
:103EC000020FE5D1FCF7BEFFC01B41F288339842D8
:103ED000F2D90325DCE70025236813F0010F08D091
:103EE0007B4AD2F8883023F0030361680B43C2F8A1
:103EF0008830236813F0020F08D0754AD2F8883052
:103F000023F00C03A1680B43C2F88830236813F038
:103F1000040F08D06E4AD2F8883023F03003E168ED
:103F20000B43C2F88830236813F0080F08D0684AA2
:103F3000D2F8883023F0C00321690B43C2F88830DF
:103F4000236813F0200F08D0614AD2F8883023F498
:103F5000406361690B43C2F88830236813F0400F57
:103F600008D05B4AD2F8883023F44053A1690B4350
:103F7000C2F88830236813F0800F08D0544AD2F872
:103F8000883023F44043E1690B43C2F8883023684A
:103F900013F4807F08D04E4AD2F8883023F440339F
:103FA000216A0B43C2F88830236813F4007F08D0DD
:103FB000474AD2F8883023F44023616A0B43C2F8A1
:103FC0008830236813F4806F0CD0414AD2F88830CF
:103FD00023F44013A16A0B43C2F88830A36AB3F5F7
:103FE000801F57D0236813F4006F0CD0384AD2F8E2
:103FF000883023F44003E16A0B43C2F88830E36A57
:10400000B3F5800F4BD0236813F4805F0CD0304A97
:10401000D2F8883023F04073216B0B43C2F888300C
:10402000236BB3F1807F3FD0236813F4005F0CD083
:10403000274AD2F8883023F04063616B0B43C2F803
:104040008830636BB3F1006F33D0236813F4804F73
:104050000CD01F4AD2F8883023F04063A16B0B4389
:10406000C2F88830A36BB3F1006F27D0236813F434
:10407000004F0CD0164AD2F8883023F04053E16B41
:104080000B43C2F88830E36BB3F1805F1BD0284646
:1040900003B0F0BDD36843F48013D360A2E7D368C4
:1040A00043F48013D360AEE7D36843F48013D36046
:1040B000BAE7D36843F48013D360C6E7D36843F408
:1040C0008013D360D2E7D36843F48033D360DEE754
:1040D000001002400070004010B50B4AD36863F036
:1040E000A003D360FCF7AEFE0446074BDB6813F079
:1040F000200F07D1FCF7A6FE001BB0F57A7FF4D99C
:10410000032000E0002010BD0028004070B5114BD6
:10411000DB6813F0400F02D00024204670BD064635
:104120000C4AD36843F08003D360FCF78BFE05464E
:104130000024084BDB6813F0400FEED1032CECD0C9
:10414000FCF780FE401BB0F57A7FF2D9032486F895
:104150002540EEE70028004010B50446114BDA6810
:1041600022F08002DA609B6913F0200F07D1FFF77D
:10417000B3FF0346A0B1032384F8253010E0094AB9
:10418000936923F020039361FFF7A6FF034610B164
:10419000032384F8253003498A6942F020028A61AA
:1041A000184610BD0028004038B5002844D0044609
:1041B00090F82530ABB1022384F825301F4BCA227A
:1041C0005A6253225A622046FFF7A0FF034668B1A5
:1041D0001A4AFF21516213B9012284F8252018469A
:1041E00038BD80F8243007F02BFBE4E7134B9A69C5
:1041F00022F08E6222F040029A6199696268206919
:104200000243A06902430A439A61E268A16842EA54
:1042100001421A612046FFF79FFF03460028D7D1CD
:104220000648826922F06042216AE569294365698E
:1042300029430A438261CBE70123D0E700280040ED
:10424000002302E001330A38C0B20928FAD81B0162
:10425000DBB218437047000090F82430012B5DD08A
:1042600070B516460D460446012380F8243002231B
:1042700080F825302B4BCA225A6253225A62FFF72C
:1042800045FF034660BB002E36D1264B9B6913F0D9
:10429000400F01D10023EB702878FFF7D1FF06040F
:1042A0006878FFF7CDFF46EA0026A878FFF7C8FF39
:1042B0003043EB7840EA835000F07F3020F0FE403E
:1042C000184B18609A6922F480229A619A69E96809
:1042D000286901430A439A612046FFF73DFF0346E0
:1042E000104AFF21516213B9012284F825200022CF
:1042F00084F82420184670BD0A4B9B6913F0400FC8
:1043000001D10023EB702B786878000240EA03406B
:10431000AB781843EB7840EA8350CDE70223184688
:10432000704700BF0028004090F82430012B4ED089
:1043300070B5012380F82430022380F825303AB983
:104340004B7813F0100F03D003F0EF030A334B70D8
:104350000E4605462ABBC878FFF772FF0404707842
:10436000FFF76EFF44EA0024B078FFF769FF0443CB
:10437000307844EA4034174BCA225A6253225A62B8
:104380002846FFF7C3FE0346B0B1124AFF2151622F
:1043900013B9012285F82520002285F8242018462B
:1043A00070BDC8784C78240244EA004488780443FD
:1043B000087844EA4034DEE724F07F4424F0C00467
:1043C000044B5C602846FFF7C7FE0346DDE7022387
:1043D0001846704700280040030903EB83035A0086
:1043E00000F00F001044C0B27047000070B5134BCE
:1043F000986848601869C0F30E0088601B6803F075
:104400007F3323F0FE43C3F305400870C3F3062651
:104410004E7003F07F058D709B0DCB705AB90C4622
:10442000FFF7DAFF20703046FFF7D6FF60702846AE
:10443000FFF7D2FFA070002070BD00BF0028004031
:1044400070B5104B5B6823F07F4323F0C003180C5A
:10445000C870C3F304264E7003F03F058D70C3F39C
:1044600042330B705AB90C46FFF7B6FFE070304686
:10447000FFF7B2FF60702846FFF7AEFFA070002084
:1044800070BD00BF0028004030B4036A23F0010370
:104490000362036A4468826922F4803222F0730264
:1044A0000D682A4323F002038D682B431C4DA8425C
:1044B0000FD005F50065A8420BD005F54065A84270
:1044C00007D005F58065A84203D005F58065A842B0
:1044D00005D123F00803CD682B4323F00403104DCE
:1044E000A8420FD005F50065A8420BD005F5406540
:1044F000A84207D005F58065A84203D005F5806580
:10450000A84205D124F440754C692C438D692C4395
:10451000446082614A684263036230BC704700BFF6
:10452000002C014030B4036A23F480730362036AF1
:104530004468C26922F4803222F073020D682A4373
:1045400023F400738D6843EA0523184DA84203D075
:1045500005F50065A84206D123F40063CD6843EA5F
:10456000052323F48063114DA8420FD005F50065A3
:10457000A8420BD005F54065A84207D005F5806537
:10458000A84203D005F58065A84207D124F4405421
:104590004D6944EA05148D6944EA05144460C2611A
:1045A0004A68C263036230BC704700BF002C014000
:1045B00030B4036A23F480530362036A4468C26917
:1045C00022F0807222F4E6420D6842EA052223F4CA
:1045D00000538D6843EA0533174DA84203D005F513
:1045E0000065A84206D123F40043CD6843EA0533B1
:1045F00023F48043104DA8420FD005F50065A84272
:104600000BD005F54065A84207D005F58065A842A6
:1046100003D005F58065A84207D124F440444D69D4
:1046200044EA85148D6944EA85144460C2614A688D
:104630000264036230BC7047002C014030B4036A4E
:1046400023F480330362036A4468026D22F48032EB
:1046500022F070020D682A4323F400338D6843EA88
:1046600005430F4DA8420FD005F50065A8420BD0B9
:1046700005F54065A84207D005F58065A84203D03E
:1046800005F58065A84204D124F480344D6944EADC
:104690000524446002654A688264036230BC704746
:1046A000002C014030B4036A23F480130362036AD0
:1046B0004468026D22F0807222F4E0420D6842EA02
:1046C000052223F400138D6843EA05530F4DA842D9
:1046D0000FD005F50065A8420BD005F54065A8424E
:1046E00007D005F58065A84203D005F58065A8428E
:1046F00004D124F480244D6944EA85244460026591
:104700004A68C264036230BC704700BF002C01409D
:1047100010B4036A046A24F001040462846924F07A
:10472000F00444EA021223F00A030B43826103629D
:104730005DF8044B704710B4036A23F01003036262
:104740008469036A24F4704444EA023223F0A0032B
:1047500043EA0113826103625DF8044B704783688A
:1047600023F4401323F07003194341F007018160E3
:10477000704700000268D36843F00103D360026809
:104780009168064B0B40062B06D0B3F5803F03D053
:10479000136843F001031360002070470700010015
:1047A0000268D36823F00103D3600368196A41F2F9
:1047B0001112114208D1196A44F24442114203D144
:1047C0001A6822F001021A60002070477047704793
:1047D000704710B5846A012384F83D30636A8342D0
:1047E0000BD0A36A834210D0E36A834210D0236BBC
:1047F000834204D10823237701E001232377204655
:10480000FFF7E6FF0023237710BD02232377F6E7A7
:1048100004232377F3E7704710B5846A012384F8F3
:104820003D30636A83420BD0A36A834210D0E36AAF
:10483000834210D0236B834204D10823237701E005
:10484000012323772046FFF7E6FF0023237710BDDF
:1048500002232377F6E704232377F3E7704710B5A5
:10486000044603681A6912F0020F12D0DA6812F0D7
:10487000020F0ED06FF002021A6101230377036862
:104880009B6913F0030F00F09F80FFF7A0FF002348
:10489000237723681A6912F0040F13D0DA6812F034
:1048A000040F0FD06FF004021A61022323772368EC
:1048B0009B6913F4407F00F08D802046FFF787FF4F
:1048C0000023237723681A6912F0080F12D0DA68E0
:1048D00012F0080F0ED06FF008021A61042323773C
:1048E0002368DB6913F0030F7BD02046FFF76FFFCF
:1048F0000023237723681A6912F0100F12D0DA68A8
:1049000012F0100F0ED06FF010021A6108232377F7
:104910002368DB6913F4407F6AD02046FFF757FF16
:104920000023237723681A6912F0010F03D0DA6895
:1049300012F0010F63D123681A6912F0800F03D0BF
:10494000DA6812F0800F61D123681A6912F4807F4F
:1049500003D0DA6812F0800F5FD123681A6912F071
:10496000400F03D0DA6812F0400F5DD123681A6956
:1049700012F0200F03D0DA6812F0200F5BD1236809
:104980001A6912F4801F03D0DA6812F4801F59D11B
:1049900023681A6912F4001F03D0DA6812F4001FAA
:1049A00057D123681A6912F4800F03D0DA6812F421
:1049B000800F55D123681A6912F4000F03D0DA680A
:1049C00012F4000F53D110BDFFF700FF2046FFF790
:1049D000FFFE5CE72046FFF7F9FE2046FFF7F8FEF2
:1049E0006EE72046FFF7F2FE2046FFF7F1FE7FE775
:1049F0002046FFF7EBFE2046FFF7EAFE90E76FF058
:104A000001021A61204604F011FF94E76FF0800262
:104A10001A61204600F0A1FB96E76FF480721A61DC
:104A2000204600F09BFB98E76FF040021A61204699
:104A3000FFF714FF9AE76FF020021A61204600F09A
:104A40008BFB9CE76FF480121A61204600F087FB15
:104A50009EE76FF400121A61204600F081FBA0E788
:104A60006FF480021A61204600F07BFBA2E76FF42E
:104A700000021A61204600F075FBA4E7704708B5F4
:104A8000806A012380F83D30FFF7F8FF08BD90F8F9
:104A90003D00704703682C4A90420ED0B0F1804F21
:104AA0000BD0A2F59432904207D002F5806290427A
:104AB00003D002F59632904203D123F070034A6886
:104AC0001343214A90421AD0B0F1804F17D0A2F57B
:104AD0009432904213D002F5806290420FD002F5DA
:104AE000963290420BD002F54062904207D002F518
:104AF0008062904203D002F58062904203D123F499
:104B00004073CA68134323F080034A691343036068
:104B10008B68C3620B6883620B4B98420FD003F51E
:104B2000006398420BD003F54063984207D003F529
:104B30008063984203D003F58063984201D10B69EA
:104B40000363012343617047002C0140A8B110B5F5
:104B5000044690F83D305BB1022384F83D30211DBE
:104B60002068FFF797FF012384F83D30002010BD37
:104B700080F83C3007F0CAF9EEE701207047A8B191
:104B800010B5044690F83D305BB1022384F83D3007
:104B9000211D2068FFF77EFF012384F83D300020AF
:104BA00010BD80F83C3007F039FAEEE7012070477D
:104BB00030B4036A23F010030362036A4468826915
:104BC00022F0807222F4E6420D6842EA052223F0C8
:104BD00020038D6843EA0513174DA84203D005F55D
:104BE0000065A84206D123F08003CD6843EA05138F
:104BF00023F04003104DA8420FD005F50065A842F0
:104C00000BD005F54065A84207D005F58065A842A0
:104C100003D005F58065A84207D124F440644D69AE
:104C200044EA85048D6944EA8504446082614A68E7
:104C30008263036230BC7047002C014038B590F8A5
:104C40003C30012B00F092800D460446012380F891
:104C50003C30022380F83D30142A1ED8DFE802F0F1
:104C60000B1D1D1D241D1D1D381D1D1D4B1D1D1D36
:104C70005F1D1D1D72000068FFF706FC2268936926
:104C800043F0080393612268936923F0040393615E
:104C90002268936929690B439361012384F83D30AD
:104CA000002084F83C0038BD0068FFF781FF2268CF
:104CB000936943F4006393612268936923F48063EA
:104CC000936122689369296943EA01239361E4E7C8
:104CD0000068FFF727FC2268D36943F00803D3611B
:104CE0002268D36923F00403D3612268D369296958
:104CF0000B43D361D1E70068FFF75AFC2268D36900
:104D000043F40063D3612268D36923F48063D361E1
:104D10002268D369296943EA0123D361BDE70068AA
:104D2000FFF78CFC2268136D43F0080313652268BB
:104D3000136D23F0040313652268136D29690B4377
:104D40001365AAE70068FFF7ADFC2268136D43F412
:104D5000006313652268136D23F480631365226872
:104D6000136D296943EA0123136596E702209AE748
:104D700010B4846824F47F4442EA03230B432343A2
:104D800083605DF8044B704790F83C30012B77D07E
:104D900010B50446012380F83C30022380F83D30F2
:104DA00002689068374B034093600B68702B41D0CA
:104DB0001DD8302B16D00FD9502B4DD0602B55D08D
:104DC000402B42D1CA6849682068FFF7A1FC402106
:104DD0002068FFF7C4FC38E0102B03D0202B01D053
:104DE000002B32D119462068FFF7B9FC2DE0264A86
:104DF0009342F7D014D8B3F1101FF3D0103A934276
:104E0000F0D0B3F5005F20D1CB684A68896820688C
:104E1000FFF7AEFF2268936843F48043936014E089
:104E20001A4A9342DED010329342DBD0303A93429A
:104E30000BD1D7E7CB684A6889682068FFF798FFED
:104E40002268936843F077039360012384F83D3030
:104E5000002084F83C0010BDCA6849682068FFF74C
:104E600057FC50212068FFF77AFCEEE7CA684968D2
:104E70002068FFF760FC60212068FFF770FCE4E722
:104E8000022070478800CEFF300010006000100044
:104E900010B401F01F01012303FA01F4036A23EAAD
:104EA00004030362036A8A40134303625DF8044B00
:104EB0007047000070B590F83D60F6B2022E00F029
:104EC000A18090F83D60F6B2012E0DD016460D4639
:104ED00004460C2927D8DFE801F0102626265226A2
:104EE0002626692626267F001AB1022480F83D4036
:104EF000ECE7002BF9D0012040E0426A4849D1623A
:104F0000426A48491163426A474951630268343230
:104F10003146406AFCF7EAFC002875D12268D36864
:104F200043F40073D360012229462068FFF7B0FFE5
:104F300023683E4A93420FD002F5006293420BD0A1
:104F400002F54062934207D002F58062934203D09B
:104F500002F58062934203D15A6C42F400425A64D3
:104F600022689168324B0B40062B55D0B3F5803F39
:104F700054D0136843F001031360002070BD826AAF
:104F80002749D162826A27491163826A264951639F
:104F9000026838323146806AFCF7A8FC002835D117
:104FA0002268D36843F48063D360BCE7C26A1C49BB
:104FB000D162C26A1B491163C26A1B49516302680C
:104FC0003C323146C06AFCF791FC08BB2268D368CA
:104FD00043F40063D360A6E7026B1149D162026B10
:104FE00010491163026B1049516302684032314627
:104FF000006BFCF77BFC68B92268D36843F48053EC
:10500000D36090E70220B9E70120B7E70120B5E7B8
:105010000120B3E70120B1E70020AFE70020ADE7B2
:10502000D3470008194800087F4A0008002C0140B7
:105030000700010090F83C30012B2AD030B4012346
:1050400080F83C30022380F83D3002685368956850
:10505000114CA24203D004F50064A24203D123F410
:1050600070034C68234323F0007323F070030C6833
:10507000234325F0800489682143536003689960C5
:10508000012380F83D30002380F83C30184630BCC6
:1050900070470220704700BF002C014090F83C3060
:1050A000012B55D010B4012380F83C30CB6823F499
:1050B00040738A68134323F480634A68134323F4DC
:1050C00000630A68134323F480530A69134323F4EB
:1050D00000534A69134323F480430A6B134323F4B8
:1050E00070238A6943EA024302681A4CA24203D041
:1050F00004F50064A24203D123F08053CC6923431A
:10510000144CA2420BD004F50064A24207D05364B1
:10511000002380F83C3018465DF8044B704723F4B8
:1051200070038C6A43EA045323F080730C6A2343B0
:1051300023F000734C6A2343064CA24203D004F5CB
:105140000064A242E3D123F00053C96A0B43DEE7B7
:1051500002207047002C014070477047704770472D
:105160007047704770470268136823F490731360A8
:105170000268936823F0805323F001039360202397
:10518000C0F884300023C3667047D0F88030212BEC
:1051900000D07047B0F856309BB26BB1036D1A78EF
:1051A00003689A62036D01330365B0F85630013B22
:1051B0009BB2A0F85630ECE70268136823F0800336
:1051C00013600268136843F0400313607047D0F81F
:1051D0008030212B00D07047B0F856309BB27BB1A5
:1051E000036D1B880268C3F308039362036D0233E7
:1051F0000365B0F85630013B9BB2A0F85630EAE7A1
:105200000268136823F0800313600268136843F098
:10521000400313607047D0F88030212B00D07047D6
:10522000B0F86A300CE00268936823F400039360DE
:105230000268136843F0400313607047013B9BB260
:10524000002BECD0B0F8562092B2002AEBD00268C6
:10525000D16911F0800FF1D0016D09789162026D72
:1052600001320265B0F85620013A92B2A0F85620F9
:10527000E4E7D0F88030212B00D07047B0F86A30D6
:105280000CE00268936823F40003936002681368DB
:1052900043F0400313607047013B9BB2002BECD0FE
:1052A000B0F8562092B2002AEBD00268D16911F012
:1052B000800FF1D0016D0988C1F308019162026D80
:1052C00002320265B0F85620013A92B2A0F8562098
:1052D000E2E70000D0F88030202B46D1002946D0EC
:1052E000002A46D090F87C30012B44D0012380F86E
:1052F0007C300165A0F85420A0F8562000230367F5
:10530000C0F888302123C0F88030436EB3F1005FCD
:105310000FD08368B3F5805F21D0184B036700235B
:1053200080F87C3001680A6842F080020A60184602
:1053300070478368B3F5805F0BD0114B0367002380
:1053400080F87C3001688A6842F400028A6018465E
:1053500070470369002BF0D10A4B0367EFE703693D
:10536000002BDAD1084B0367D9E7022070470120F0
:105370007047012070470220704700BF8B51000822
:105380001752000873520008CF510008D0F884303B
:10539000202B7FD100297FD0002A7FD090F87C304D
:1053A000012B7DD0012380F87C308165A0F85C2042
:1053B000A0F85E200023C3668368B3F5805F06D043
:1053C000A3B9036973B9FF23A0F8603014E003693F
:1053D00023B940F2FF13A0F860300DE0FF23A0F8DE
:1053E000603009E07F23A0F8603005E0B3F1805F12
:1053F00021D00023A0F860300023C0F88830222399
:10540000C0F8843001688B6843F001038B60436E01
:10541000B3F1005F19D08368B3F5805F34D0214BBE
:10542000C366002380F87C3001680A6842F49072F9
:105430000A601846704703691BB97F23A0F86030E3
:10544000DAE73F23A0F86030D6E7B0F8683093423F
:10545000E1D88368B3F5805F10D0134BC366002397
:1054600080F87C3001680A6842F480720A60016842
:105470008A6842F080528A60184670470369002BA0
:10548000EBD10A4BC366EAE70369002BC7D1084B8F
:10549000C366C6E7022070470120704701207047AD
:1054A00002207047D15400089D5500084956000855
:1054B0003755000808B501680A6822F040020A6002
:1054C0002022C0F880200022026704F02FFC08BDD3
:1054D00008B5B0F86030D0F88420222A05D00268E0
:1054E000936943F00803936108BD0268516ADBB217
:1054F000826D0B401370836D01338365B0F85E30AD
:10550000013B9BB2A0F85E30B0F85E309BB2002B3E
:10551000EAD10268136823F49073136002689368F9
:1055200023F0010393602023C0F884300023C36676
:1055300004F018FBD8E708B5B0F86020D0F8843044
:10554000222B05D00268936943F00803936108BDDC
:1055500003685B6A816D13400B80836D0233836542
:10556000B0F85E30013B9BB2A0F85E30B0F85E3020
:105570009BB2002BEBD10268136823F49073136085
:105580000268936823F0010393602023C0F88430FD
:105590000023C36604F0E6FAD9E7000070B5B0F85E
:1055A0006050D0F88430222B05D00268936943F014
:1055B0000803936170BD0446B0F8686001E0013EE5
:1055C000B6B246B32368596AEBB2A26D0B401370B2
:1055D000A36D0133A365B4F85E30013B9BB2A4F820
:1055E0005E30B4F85E309BB2002BE8D122681368BD
:1055F00023F4807313602268936823F0805323F0B0
:10560000010393602023C4F884300023E36620461E
:1056100004F0A8FAD3E7B4F85E309BB2002BC9D0EF
:10562000B4F868209A42C5D92268936823F0805361
:105630009360044BE3662268136843F02003136011
:10564000B8E700BFD154000870B5B0F86060D0F87A
:105650008430222B05D00268936943F008039361DC
:1056600070BD0446B0F8685001E0013DADB23DB3F5
:1056700023685B6AA26D33401380A36D0233A36578
:10568000B4F85E30013B9BB2A4F85E30B4F85E30F3
:105690009BB2002BE9D12268136823F48073136056
:1056A0002268936823F0805323F001039360202342
:1056B000C4F884300023E366204604F053FAD4E7AC
:1056C000B4F85E309BB2002BCAD0B4F868209A427E
:1056D000C6D92268936823F080539360034BE36636
:1056E0002268136843F020031360B9E737550008B8
:1056F0007047000070B504460268D369106891686D
:1057000013F00F050DD113F0200F0AD010F0200F69
:1057100002D111F0805F04D0E36E0BB120469847B0
:1057200070BD002D00F083805F4D0D4002D110F45C
:10573000907F7CD013F0010F09D010F4807F06D049
:1057400001261662D4F888203243C4F8882013F06A
:10575000020F0BD011F0010F08D02268022616624A
:10576000D4F8882042F00402C4F8882013F0040F13
:105770000BD011F0010F08D0226804261662D4F86D
:10578000882042F00202C4F8882013F0080F0BD0E2
:1057900010F0200F00D13DB1226808251562D4F821
:1057A00088202A43C4F88820D4F88820002AB7D05B
:1057B00013F0200F09D010F0200F02D111F0805FFC
:1057C00003D0E36E0BB120469847D4F888202368B5
:1057D0009B6813F0400F02D112F0080F20D0204632
:1057E000FFF7C1FC23689A6812F0400F14D09A6842
:1057F00022F040029A60A36F53B12C4A9A63A06FC3
:10580000FCF7BEF800288BD0A06F836B984787E722
:105810002046FFF76DFF83E72046FFF769FF7FE72C
:105820002046FFF765FF0023C4F8883078E713F4BB
:10583000801F02D011F4800F0FD113F0800F13D00E
:1058400010F0800F02D111F4000F0DD0236F002B48
:105850003FF466AF2046984762E74FF48013136227
:10586000204600F0F7FF5BE713F0400F02D010F086
:10587000400F10D113F4000F02D010F0804F0ED162
:1058800013F0807F3FF44CAF0028BFF649AF2046AD
:1058900000F0E1FF44E72046FFF70CFE40E720461A
:1058A00000F0DAFF3CE700BF01000010B15800082B
:1058B00008B5806A0023A0F85E30A0F85630FFF7E4
:1058C00017FF08BD000000002DE9F04804460168FC
:1058D00083680269134342691343C2691343426EEA
:1058E00013430868914A02401A430A6022685368C9
:1058F00023F44053E1680B435360A16922688C4B49
:105900009A4201D0236A1943936823F06E4323F42B
:1059100030630B4393602268D36A23F00F03616AFC
:105920000B43D3622368834A934223D0824A934233
:1059300034D0824A93424AD0814A93425DD07C4A15
:10594000934270D010257A4A934200F08F80E36929
:10595000B3F5004F00F05483082D00F21686DFE8FF
:1059600015F0AB04FB043905140691051406140662
:105970001406CF0502F55842D2F8882002F003023F
:10598000032A09D8DFE802F0020468060125DAE7F5
:105990000425D8E70825D6E71025D4E702F5E63236
:1059A000D2F8882002F00C020C2A0ED8DFE802F0B0
:1059B000070D0D0D090D0D0D560D0D0D0B000025DC
:1059C000C1E70425BFE70825BDE71025BBE702F5C1
:1059D000E432D2F8882002F03002102A09D005D92A
:1059E000202A3DD0302A06D10825ACE71AB9002577
:1059F000A9E70425A7E71025A5E702F5E232D2F8CA
:105A0000882002F0C002402A09D005D9802A29D076
:105A1000C02A06D1082596E71AB9002593E7042580
:105A200091E710258FE702F5C832D2F8882002F4FA
:105A30004062B2F5806F0BD007D9B2F5006F13D07A
:105A4000B2F5406F06D108257DE71AB900257AE73F
:105A5000042578E7102576E7022574E7022572E72A
:105A6000022570E702256EE702256CE7082D00F29B
:105A70008F85DFE815F009008D0567008D0585002D
:105A80008D058D058D05BC00FEF790F9636AD3B1D5
:105A9000012B36D0022B36D0032B36D0042B36D038
:105AA000052B36D0062B36D0072B36D0082B36D018
:105AB000092B36D00A2B36D00B2B01D0012303E063
:105AC0004FF4807300E00123B0FBF3F0002800F0F6
:105AD0006185626802EB4203834200F25D85B0EBB0
